{
  "_format": "hh-sol-artifact-1",
  "contractName": "Splitwise",
  "sourceName": "contracts/mycontract.sol",
  "abi": [
    {
      "inputs": [
        {
          "internalType": "address",
          "name": "creditor",
          "type": "address"
        },
        {
          "internalType": "uint32",
          "name": "amount",
          "type": "uint32"
        }
      ],
      "name": "add_IOU",
      "outputs": [],
      "stateMutability": "nonpayable",
      "type": "function"
    },
    {
      "inputs": [
        {
          "internalType": "address",
          "name": "",
          "type": "address"
        },
        {
          "internalType": "address",
          "name": "",
          "type": "address"
        }
      ],
      "name": "ious",
      "outputs": [
        {
          "internalType": "uint32",
          "name": "",
          "type": "uint32"
        }
      ],
      "stateMutability": "view",
      "type": "function"
    },
    {
      "inputs": [
        {
          "internalType": "address",
          "name": "debtor",
          "type": "address"
        },
        {
          "internalType": "address",
          "name": "creditor",
          "type": "address"
        }
      ],
      "name": "lookup",
      "outputs": [
        {
          "internalType": "uint32",
          "name": "",
          "type": "uint32"
        }
      ],
      "stateMutability": "view",
      "type": "function"
    },
    {
      "inputs": [
        {
          "internalType": "address",
          "name": "addr",
          "type": "address"
        },
        {
          "internalType": "uint32",
          "name": "min",
          "type": "uint32"
        }
      ],
      "name": "subtract_debts",
      "outputs": [],
      "stateMutability": "nonpayable",
      "type": "function"
    }
  ],
  "bytecode": "0x608060405234801561001057600080fd5b506108e9806100206000396000f3fe608060405234801561001057600080fd5b506004361061004c5760003560e01c8063713584a6146100515780637660932814610081578063d12099e4146100b1578063e0d1b47c146100cd575b600080fd5b61006b600480360381019061006691906105b3565b6100e9565b6040516100789190610612565b60405180910390f35b61009b600480360381019061009691906105b3565b61017f565b6040516100a89190610612565b60405180910390f35b6100cb60048036038101906100c69190610659565b6101b1565b005b6100e760048036038101906100e29190610659565b610324565b005b60008060008473ffffffffffffffffffffffffffffffffffffffff1673ffffffffffffffffffffffffffffffffffffffff16815260200190815260200160002060008373ffffffffffffffffffffffffffffffffffffffff1673ffffffffffffffffffffffffffffffffffffffff16815260200190815260200160002060009054906101000a900463ffffffff16905092915050565b60006020528160005260406000206020528060005260406000206000915091509054906101000a900463ffffffff1681565b3373ffffffffffffffffffffffffffffffffffffffff168273ffffffffffffffffffffffffffffffffffffffff160361021f576040517f08c379a0000000000000000000000000000000000000000000000000000000008152600401610216906106f6565b60405180910390fd5b60008163ffffffff1611610268576040517f08c379a000000000000000000000000000000000000000000000000000000000815260040161025f90610762565b60405180910390fd5b806000803373ffffffffffffffffffffffffffffffffffffffff1673ffffffffffffffffffffffffffffffffffffffff16815260200190815260200160002060008473ffffffffffffffffffffffffffffffffffffffff1673ffffffffffffffffffffffffffffffffffffffff16815260200190815260200160002060008282829054906101000a900463ffffffff1661030291906107b1565b92506101000a81548163ffffffff021916908363ffffffff1602179055505050565b6000803373ffffffffffffffffffffffffffffffffffffffff1673ffffffffffffffffffffffffffffffffffffffff16815260200190815260200160002060008373ffffffffffffffffffffffffffffffffffffffff1673ffffffffffffffffffffffffffffffffffffffff16815260200190815260200160002060009054906101000a900463ffffffff1663ffffffff16816000803373ffffffffffffffffffffffffffffffffffffffff1673ffffffffffffffffffffffffffffffffffffffff16815260200190815260200160002060008573ffffffffffffffffffffffffffffffffffffffff1673ffffffffffffffffffffffffffffffffffffffff16815260200190815260200160002060009054906101000a900463ffffffff1661044d91906107e9565b63ffffffff161115610494576040517f08c379a000000000000000000000000000000000000000000000000000000000815260040161048b90610893565b60405180910390fd5b806000803373ffffffffffffffffffffffffffffffffffffffff1673ffffffffffffffffffffffffffffffffffffffff16815260200190815260200160002060008473ffffffffffffffffffffffffffffffffffffffff1673ffffffffffffffffffffffffffffffffffffffff16815260200190815260200160002060008282829054906101000a900463ffffffff1661052e91906107e9565b92506101000a81548163ffffffff021916908363ffffffff1602179055505050565b600080fd5b600073ffffffffffffffffffffffffffffffffffffffff82169050919050565b600061058082610555565b9050919050565b61059081610575565b811461059b57600080fd5b50565b6000813590506105ad81610587565b92915050565b600080604083850312156105ca576105c9610550565b5b60006105d88582860161059e565b92505060206105e98582860161059e565b9150509250929050565b600063ffffffff82169050919050565b61060c816105f3565b82525050565b60006020820190506106276000830184610603565b92915050565b610636816105f3565b811461064157600080fd5b50565b6000813590506106538161062d565b92915050565b600080604083850312156106705761066f610550565b5b600061067e8582860161059e565b925050602061068f85828601610644565b9150509250929050565b600082825260208201905092915050565b7f43616e6e6f74206f776520746f206f6e6573656c660000000000000000000000600082015250565b60006106e0601583610699565b91506106eb826106aa565b602082019050919050565b6000602082019050818103600083015261070f816106d3565b9050919050565b7f494f5520616d6f756e74206d75737420626520706f7369746976650000000000600082015250565b600061074c601b83610699565b915061075782610716565b602082019050919050565b6000602082019050818103600083015261077b8161073f565b9050919050565b7f4e487b7100000000000000000000000000000000000000000000000000000000600052601160045260246000fd5b60006107bc826105f3565b91506107c7836105f3565b9250828201905063ffffffff8111156107e3576107e2610782565b5b92915050565b60006107f4826105f3565b91506107ff836105f3565b9250828203905063ffffffff81111561081b5761081a610782565b5b92915050565b7f43616e6e6f74207375627472616374206d6f7265207468616e20746865206f7760008201527f656420616d6f756e740000000000000000000000000000000000000000000000602082015250565b600061087d602983610699565b915061088882610821565b604082019050919050565b600060208201905081810360008301526108ac81610870565b905091905056fea264697066735822122039ac7f9c6339b8480a284d9c1c913f5a28efcca67a3608393bbf86ce6fc6fefe64736f6c63430008110033",
  "linkReferences": {},
  "deployedLinkReferences": {}
}